{
    "contractName": "LootBoxes",
    "abi": [
        {
            "constant": false,
            "inputs": [
                {
                    "name": "screenName",
                    "type": "string"
                }
            ],
            "name": "drawItem",
            "outputs": [
                {
                    "name": "",
                    "type": "uint256"
                }
            ],
            "payable": false,
            "stateMutability": "nonpayable",
            "type": "function"
        },
        {
            "constant": true,
            "inputs": [
                {
                    "name": "",
                    "type": "uint256"
                }
            ],
            "name": "items",
            "outputs": [
                {
                    "name": "",
                    "type": "string"
                }
            ],
            "payable": false,
            "stateMutability": "view",
            "type": "function"
        },
        {
            "constant": true,
            "inputs": [
                {
                    "name": "",
                    "type": "uint256"
                }
            ],
            "name": "probabilities",
            "outputs": [
                {
                    "name": "",
                    "type": "uint256"
                }
            ],
            "payable": false,
            "stateMutability": "view",
            "type": "function"
        },
        {
            "anonymous": false,
            "inputs": [
                {
                    "indexed": false,
                    "name": "item",
                    "type": "string"
                },
                {
                    "indexed": false,
                    "name": "screenName",
                    "type": "string"
                }
            ],
            "name": "Draws",
            "type": "event"
        }
    ],
    "bytecode": "600c60e08181527f447261676f6e2053776f726400000000000000000000000000000000000000006101005260809081526101208281527f53696c7665722053776f726400000000000000000000000000000000000000006101405260a0526101a06040526101609182527f436f6d6d6f6e2053776f726400000000000000000000000000000000000000006101805260c0919091526100a39060009060036100e2565b5060408051606081018252600a8152601460208201526046918101919091526100cf9060039081610132565b503480156100dc57600080fd5b50610266565b8260038101928215610122579160200282015b828111156101225782518051610112918491602090910190610171565b50916020019190600101906100f5565b5061012e9291506101df565b5090565b8260038101928215610165579160200282015b82811115610165578251829060ff16905591602001919060010190610145565b5061012e929150610205565b828054600181600116156101000203166002900490600052602060002090601f016020900481019282601f106101b257805160ff1916838001178555610165565b82800160010185558215610165579182015b828111156101655782518255916020019190600101906101c4565b61020291905b8082111561012e5760006101f9828261021f565b506001016101e5565b90565b61020291905b8082111561012e576000815560010161020b565b50805460018160011615610100020316600290046000825580601f106102455750610263565b601f0160209004906000526020600020908101906102639190610205565b50565b610467806102756000396000f3006080604052600436106100565763ffffffff7c0100000000000000000000000000000000000000000000000000000000600035041663936efef9811461005b578063bfb231d2146100c6578063f8833efd14610153575b600080fd5b34801561006757600080fd5b506040805160206004803580820135601f81018490048402850184019095528484526100b494369492936024939284019190819084018382808284375094975061016b9650505050505050565b60408051918252519081900360200190f35b3480156100d257600080fd5b506100de6004356102ae565b6040805160208082528351818301528351919283929083019185019080838360005b83811015610118578181015183820152602001610100565b50505050905090810190601f1680156101455780820380516001836020036101000a031916815260200191505b509250505060405180910390f35b34801561015f57600080fd5b506100b4600435610349565b6000806000806006856040518082805190602001908083835b602083106101a35780518252601f199092019160209182019101610184565b51815160209384036101000a600019018019909216911617905292019485525060405193849003019092205443141591506101dc905057fe5b436006866040518082805190602001908083835b6020831061020f5780518252601f1990920191602091820191016101f0565b51815160209384036101000a60001901801990921691161790529201948552506040519384900301909220929092555061024a90508561035c565b60ff16925060009150600090505b60038110156102a65781831015801561027f575060038181811061027857fe5b0154820183105b1561028c578093506102a6565b60038181811061029857fe5b015482019150600101610258565b505050919050565b600081600381106102bb57fe5b018054604080516020601f6002600019610100600188161502019095169490940493840181900481028201810190925282815293508301828280156103415780601f1061031657610100808354040283529160200191610341565b820191906000526020600020905b81548152906001019060200180831161032457829003601f168201915b505050505081565b60038181811061035557fe5b0154905081565b6000606442836040516020018083815260200182805190602001908083835b6020831061039a5780518252601f19909201916020918201910161037b565b6001836020036101000a038019825116818451168082178552505050505050905001925050506040516020818303038152906040526040518082805190602001908083835b602083106103fe5780518252601f1990920191602091820191016103df565b5181516020939093036101000a600019018019909116921691909117905260405192018290039091209250505081151561043457fe5b06929150505600a165627a7a72305820276ce9de29fe5969500e9130706c0da181aec2110038a9ca3b6be06123833e680029",
    "sourcePath": "e:/Projects/#onprogress/spaceBank/lootbox/contracts/LootBoxes.sol",
    "compiler": {
        "name": "solc",
        "version": "0.4.26+commit.4563c3fc"
    },
    "functionHashes": {
        "drawItem(string)": "936efef9",
        "items(uint256)": "bfb231d2",
        "probabilities(uint256)": "f8833efd"
    },
    "gasEstimates": {
        "creation": {
            "codeDepositCost": "225400",
            "executionCost": "infinite",
            "totalCost": "infinite"
        },
        "external": {
            "drawItem(string)": "infinite",
            "items(uint256)": "infinite",
            "probabilities(uint256)": "468"
        },
        "internal": {
            "RNG(string memory)": "infinite"
        }
    }
}